:020000040800F2
:1000000000C00020812D00082507000829070008EE
:100010002D07000831070008350700080000000020
:10002000000000000000000000000000A117000810
:100030003907000800000000411800083D070008CB
:10004000C92D0008C92D0008C92D0008C92D0008B8
:10005000C92D0008C92D0008C92D0008C92D0008A8
:10006000C92D0008C92D0008C92D0008C92D000898
:10007000C92D0008C92D0008C92D0008C92D000888
:10008000C92D0008C92D0008C92D0008C92D000878
:10009000C92D0008C92D0008C92D0008C92D000868
:1000A000C92D0008C92D0008C92D0008C92D000858
:1000B000C92D0008C92D000845070008C92D0008F2
:1000C000C92D0008C92D0008C92D0008C92D000838
:1000D000C92D0008C92D0008C92D0008C92D000828
:1000E000C92D0008C92D0008C92D0008C92D000818
:1000F000C92D0008C92D0008C92D0008C92D000808
:10010000C92D0008C92D0008C92D0008C92D0008F7
:10011000C92D0008C92D0008C92D0008C92D0008E7
:10012000C92D0008C92D0008C92D0008C92D0008D7
:1001300000000000000000000000000000000000BF
:1001400000000000000000000000000000000000AF
:10015000000000000000000000000000000000009F
:10016000000000000000000000000000000000008F
:10017000000000000000000000000000000000007F
:10018000000000000000000000000000000000006F
:10019000000000000000000000000000000000005F
:1001A000000000000000000000000000000000004F
:1001B000000000000000000000000000000000003F
:1001C000000000000000000000000000000000002F
:1001D000000000000000000000000000000000001F
:0401E0005FF8E0F1F3
:1001F000044B05481B1A062B02D9044B03B11847C0
:10020000704700BF0F0000200C000020000000001D
:1002100005490648091A891001EBD171491002D02D
:10022000034B03B1184770470C0000200C0000205E
:100230000000000010B5064C237843B9FFF7D8FF43
:10024000044B13B10448AFF300800123237010BDA9
:100250000C00002000000000CC2D000808B5084B61
:100260001BB108490848AFF300800848036813B978
:10027000BDE80840CCE7064B002BF9D09847F7E7DC
:100280000000000010000020CC2D00080C00002011
:100290000000000070B50F4E0F4D761BB61018BF52
:1002A000002405D0013455F8043B9847A642F9D103
:1002B0000A4E0B4D02F08AFD761BB61018BF0024C3
:1002C00006D0013455F8043B9847A642F9D170BDD9
:1002D00070BD00BF6C2E00086C2E0008702E000848
:1002E0006C2E0008844641EA000313F0030349D151
:1002F000403A23D30B6803604B6843608B6883608C
:10030000CB68C3600B6903614B6943618B6983618F
:10031000CB69C3610B6A03624B6A43628B6A836277
:10032000CB6AC3620B6B03634B6B43638B6B83635F
:10033000CB6BC36340304031403ADBD230320BD319
:100340000B6803604B6843608B688360CB68C36055
:1003500010301031103AF3D20C3205D351F8043B6F
:1003600040F8043B043AF9D2043208D0D2071CBF4B
:1003700011F8013B00F8013B01D30B880380604674
:10038000704700BF082A13D38B07B1D010F00303C6
:10039000AED0C3F10403D21ADB071CBF11F8013B36
:1003A00000F8013BA4D331F8023B20F8023B9FE761
:1003B000043AD9D3013A11F8013B00F8013BF9D2D4
:1003C0000B7803704B7843708B788370604670476E
:1003D0002DE9F04186B01D4B9A6942F020029A61E6
:1003E0009A6902F020020092009A9A6942F004028F
:1003F0009A619B6903F004030193019BDFF8548029
:1004000000224FF48071404600F0CCFF104C0022D7
:100410000421204600F0C6FF4FF4807302930127A9
:100420000397002604960225059502A9404600F090
:10043000C3FE0423029303970496059502A9204660
:1004400000F0BAFE06B0BDE8F08100BF0010024027
:10045000001401400008014010B58AB00123019347
:100460000222029203238DF80C3004920593042299
:100470008DF818200793089205238DF824300B4C33
:1004800001A9206802F0F4FB052002F083FB04A917
:10049000206802F0EDFB052002F07CFB07A9206834
:1004A00002F0E6FB0F2002F075FBE8E77C0D002070
:1004B000F0B585B04FF0FF321B4B196801A802F070
:1004C0000BFC019B202BF5D1029B1B6827E0174CEE
:1004D000236823F480632360154F00224FF480715A
:1004E000384600F05FFF134D00220421284600F03B
:1004F00059FF236843F4806323600A2002F04AFB1B
:1005000001224FF48071384600F04CFF0122042193
:10051000284600F047FF0A2002F03CFB33465E1EEF
:10052000002BD4D1C6E700BF7C0D0020001004E0F2
:100530000008014000140140284A936943F0010378
:100540009361A2F58832536843F000735360244BE3
:100550005A6842F020025A605B6813F0200F3BD0CB
:10056000204AD36843F08073D3601F4B08221A617E
:100570000221C3F8F0104FF48172C3F804231B4A20
:10058000A3F57C331A604FF06043A2F16952A2F5E3
:10059000A212A2F6AC32C3F8B02F1548C3F8800EF1
:1005A0004FF0FF30C3F8000E03F58223C3F8B02FDD
:1005B0001A6842F480621A604FF419621A60C3F834
:1005C00000124FF080725A629A621822DA6244F284
:1005D0006F029A606F221A62704700BF00100240DB
:1005E000002004E0F0ED00E0000004E0011A01004A
:1005F0000F000100034B044A1A6208225A622222A9
:100600009A627047001000E00010014008B50268CF
:10061000024B9A4201D100F079FA08BD000800406F
:10062000FEE700BF00B591B0012206924FF480337F
:100630000793002108910A9202220D920E934FF423
:10064000E0130F9306A800F089FA20B14FF4AF71C0
:100650001448FFF7E5FF0F230193022102910023C5
:1006600003934FF480620492059301A800F0AEFC5E
:1006700020B14FF4B6710B48FFF7D2FF00F068FDD0
:10068000094BA3FB0030800900F0E2FE042000F0DB
:10069000F5FE00220F214FF0FF3000F09BFE11B05D
:1006A0005DF804FB202E0008D34D621070B58EB0AB
:1006B00000F01AFAFFF7B6FFFFF78AFEFFF73CFFDC
:1006C000FFF798FF0F230A930C230B930DAB0C93AA
:1006D00000210AA802F09CFA0E4B18600E4C05ADE2
:1006E00026460FCE0FC533682B60002105A802F007
:1006F00037FA0A4B18606D4614340FCC0FC52368C7
:100700002B600021684602F02BFA054B186002F0BE
:1007100021FAFEE77C0D0020E42D0008740D002076
:10072000780D0020704700BFFEE700BFFEE700BF66
:10073000FEE700BFFEE700BF704700BF08B502F04C
:1007400017FB08BD08B5024800F0A8F808BD00BFB7
:10075000800D002000B583B0244B9A6942F001025D
:100760009A619A6902F001020092009ADA6942F0F5
:100770008052DA61DB6903F080530193019B03200F
:1007800000F016FE002211466FF00B0000F022FE72
:10079000002211466FF00A0000F01CFE00221146F4
:1007A0006FF0090000F016FE002211466FF0040001
:1007B00000F010FE002211466FF0030000F00AFE68
:1007C00000220F216FF0010000F004FE00220F2133
:1007D0004FF0FF3000F0FEFD054A536823F0E06360
:1007E00043F00073536003B05DF804FB0010024057
:1007F0000000014000B589B0002201461E2000F033
:10080000E9FD1E2000F018FE154BDA6942F00402E3
:10081000DA61DB6903F004030193019B02A903A8D9
:1008200000F0ACFC00F09AFC40000E4BA3FB002350
:100830009B0C013B0C480D4A026040F2E732C2605B
:10084000436000230361836000F02EF918B9064865
:1008500000F010F800E0012009B05DF804FB00BFD3
:100860000010024083DE1B43800D00200008004082
:10087000704700BF0268D36843F00103D360026889
:10088000136843F00103136000207047704700BFF6
:10089000704700BF704700BF704700BF10B50446E7
:1008A00003681A6912F0020F17D0DA6812F0020F0B
:1008B00013D06FF002021A610123037703689B696A
:1008C00013F0030F02D0FFF7E3FF04E0FFF7DEFFB2
:1008D0002046FFF7DFFF0023237723681A6912F011
:1008E000040F19D0DA6812F0040F15D06FF004026B
:1008F0001A610223237723689B6913F4407F03D096
:100900002046FFF7C5FF05E02046FFF7BFFF204662
:10091000FFF7C0FF0023237723681A6912F0080F3E
:1009200019D0DA6812F0080F15D06FF008021A61BA
:10093000042323772368DB6913F0030F03D02046D9
:10094000FFF7A6FF05E02046FFF7A0FF2046FFF7D0
:10095000A1FF0023237723681A6912F0100F19D022
:10096000DA6812F0100F15D06FF010021A61082328
:1009700023772368DB6913F4407F03D02046FFF719
:1009800087FF05E02046FFF781FF2046FFF782FF43
:100990000023237723681A6912F0010F09D0DA685F
:1009A00012F0010F05D06FF001021A612046FFF727
:1009B0002DFE23681A6912F0800F09D0DA6812F050
:1009C000800F05D06FF080021A61204600F08AF88F
:1009D00023681A6912F0400F09D0DA6812F0400F4C
:1009E00005D06FF040021A612046FFF755FF2368DB
:1009F0001A6912F0200F09D0DA6812F0200F05D022
:100A00006FF020021A61204600F06AF810BD00BFA6
:100A10000368244A904212D002F5006290420ED040
:100A2000B0F1804F0BD0A2F59832904207D002F57A
:100A30008062904203D002F58062904203D123F09D
:100A400070034A681343174A904212D002F50062BD
:100A500090420ED0B0F1804F0BD0A2F59832904268
:100A600007D002F58062904203D002F58062904286
:100A700003D123F44073CA68134323F080034A6907
:100A8000134303608B68C3620B688362054B984213
:100A900003D003F50063984201D10B69036301237E
:100AA00043617047002C0140B8B110B5044690F87E
:100AB0003D3013F0FF0F04D1002380F83C30FFF7E6
:100AC000D7FE022384F83D30211D2068FFF7A0FFE8
:100AD000012384F83D30002010BD0120704700BF85
:100AE000704700BF704700BF08B5074A136843F05E
:100AF00010031360032000F05BFC0020FFF77AFE78
:100B0000FFF728FE002008BD00200240034A1368BA
:100B1000034909780B441360704700BFC00D0020E3
:100B200000000020014B1868704700BFC00D002076
:100B300082B0084B1B68084AA2FB03235B0A00FB38
:100B400003F0019000BF019B5A1E0192002BF9D1C6
:100B500002B0704704000020D34D621070B582B01F
:100B60000446036813F0010F6BD0A84B5B6803F0D9
:100B70000C03042B0AD0A54B5B6803F00C03082B75
:100B80000DD1A24B5B6813F4803F08D09F4B1B68CC
:100B900013F4003F55D06368002B52D1B8E163686D
:100BA000B3F5803F05D1994A136843F4803313604D
:100BB00026E063B903F1804303F504331A6822F495
:100BC00080321A601A6822F480221A6018E0B3F5A5
:100BD000A02F0CD103F18043A3F53C331A6842F4F3
:100BE00080221A601A6842F480321A6008E0874B4B
:100BF0001A6822F480321A601A6822F480221A607D
:100C000063687BB1FFF78EFF054605E0FFF78AFFBB
:100C1000401B642800F27E817C4B1B6813F4003F6C
:100C2000F4D00EE0FFF77EFF054605E0FFF77AFF00
:100C3000401B642800F27081744B1B6813F4003F62
:100C4000F4D1236813F0020F50D0704B5B6813F09F
:100C50000C0F0AD06D4B5B6803F00C03082B16D108
:100C60006A4B5B6813F4803F11D1684B1B6813F02B
:100C7000020F03D02369012B40F05081634A1368AF
:100C800023F0F803616943EAC10313602EE023698E
:100C9000D3B101225E4B1A60FFF744FF054605E021
:100CA000FFF740FF401B022800F23A81574B1B68B8
:100CB00013F0020FF4D0554A136823F0F80361696A
:100CC00043EAC103136011E00022514B1A60FFF7A1
:100CD00029FF054605E0FFF725FF401B022800F22B
:100CE00021814A4B1B6813F0020FF4D1236813F0E3
:100CF000080F29D0A369ABB10122464B1A60FFF758
:100D000011FF054605E0FFF70DFF401B022800F22A
:100D10000B813E4B5B6A13F0020FF4D00120FFF70A
:100D200007FF11E000223B4B1A60FFF7FBFE054670
:100D300005E0FFF7F7FE401B022800F2F780334B77
:100D40005B6A13F0020FF4D1236813F0040F00F074
:100D500089802E4BDB6913F0805F0BD12B4BDA6956
:100D600042F08052DA61DB6903F080530193019B0A
:100D7000012500E00025284B1B6813F4807F13D168
:100D8000254A136843F480731360FFF7CBFE0646D1
:100D900005E0FFF7C7FE801B642800F2C9801E4BE8
:100DA0001B6813F4807FF4D0E368012B05D1174A48
:100DB000136A43F00103136222E063B903F1804335
:100DC00003F504331A6A22F001021A621A6A22F049
:100DD00004021A6214E0052B09D10C4B1A6A42F086
:100DE00004021A621A6A42F001021A6208E0074B12
:100DF0001A6A22F001021A621A6A22F004021A62C6
:100E0000E368CBB1FFF78EFE06460FE0001002400C
:100E1000000042428004424200700040FFF782FE20
:100E2000801B41F28833984200F28480494B1B6A50
:100E300013F0020FF2D00FE0FFF774FE064606E053
:100E4000FFF770FE801B41F28833984274D8414B03
:100E50001B6A13F0020FF3D125B13E4AD36923F088
:100E60008053D361E369002B68D03A4A526802F09C
:100E70000C02082A64D0022B37D10022364B1A60AC
:100E8000FFF750FE054604E0FFF74CFE401B02282A
:100E900058D8304B1B6813F0007FF5D1236AB3F5A7
:100EA000803F06D12B494B6823F40032A3681343DB
:100EB0004B602848436823F47411236A626A134321
:100EC0000B4343600122244B1A60FFF72BFE0446BC
:100ED00004E0FFF727FE001B022835D81D4B1B68D6
:100EE00013F0007FF5D0002031E000221A4B1A6089
:100EF000FFF718FE044604E0FFF714FE001B02286B
:100F000024D8144B1B6813F0007FF5D100201EE09D
:100F100001201CE003201AE0032018E0012016E065
:100F2000032014E0032012E0032010E003200EE071
:100F300003200CE003200AE0032008E0002006E084
:100F4000012004E0032002E0032000E0032002B0BF
:100F500070BD00BF001002406000424230B486B055
:100F6000164D02AC28686968AA68EB680FC42B8A22
:100F7000ADF80430124B5B6803F00C02082A19D15B
:100F8000C3F3834206A90A4412F8100C13F4803FFD
:100F90000CD00B4B5B68C3F340430B4413F8142C89
:100FA000084B03FB00F0B0FBF2F004E0064B03FB40
:100FB00000F000E0034806B030BC70470C2E00087B
:100FC0000010024000127A0000093D0070B55C4B31
:100FD0001B6803F007038B420BD2594A136823F0B6
:100FE00007030B431360136803F00703994240F0B3
:100FF0009780036813F0020F06D0524C636823F009
:10100000F0028368134363600D460446036813F0DF
:10101000010F4DD04268012A05D14A4B1B6813F4D9
:10102000003F0DD17EE0022A05D1464B1B6813F02C
:10103000007F05D178E0434B1B6813F0020F75D099
:1010400040494B6823F0030313434B60FFF76AFDED
:1010500006466368012B0ED106E0FFF763FD801B97
:1010600041F28833984263D8364B5B6803F00C0337
:10107000042BF2D11CE0022B15D106E0FFF752FD44
:10108000801B41F28833984254D82E4B5B6803F0A2
:101090000C03082BF2D10BE0FFF744FD801B41F25B
:1010A0008833984248D8274B5B6813F00C0FF3D174
:1010B000234B1B6803F007039D420AD2204A1368A2
:1010C00023F007032B431360136803F007039D42CB
:1010D00034D1236813F0040F06D01A494B6823F467
:1010E000E062E36813434B60236813F0080F07D0F6
:1010F000144A536823F46053216943EAC1035360DF
:10110000FFF72CFF0F4B5B68C3F303130E4AD35C4E
:10111000D8400E4B18600020FFF76CFB002070BD1C
:10112000012070BD012070BD012070BD012070BD87
:10113000032070BD032070BD032070BD012070BD71
:1011400000200240001002404C2E00080400002045
:10115000014B1868704700BF0400002008B5FFF776
:10116000F7FF044B5B68C3F30223034AD35CD84008
:1011700008BD00BF001002405C2E00080F23036072
:101180000B4B5A6802F0030242605A6802F0F00208
:1011900082605A6802F4E062C2605B68DB0803F4B4
:1011A000E0630361034B1B6803F007030B607047A8
:1011B0000010024000200240F0B583B00026344603
:1011C000DFE00122A2400B6813409A4240F0D88031
:1011D0004D68122D2DD00BD8022D27D003D85DB32A
:1011E000012D1ED035E0032D30D0112D1BD030E065
:1011F000664FBD4220D008D8A7F58017BD421BD04E
:1012000007F58037BD4224D116E0614FBD4213D0AF
:1012100007F58037BD420FD0A7F58017BD4218D122
:101220000AE0CE6815E0CE68043612E0CE680836D3
:101230000FE0CE680C360CE08D684DB1012D02D167
:101240000261082605E04261082602E0002600E06F
:101250000426FF2B01D8864601E000F1040EFF2B87
:1012600001D8A20002E0A4F108029200DEF80070AA
:101270000F25954027EA050506FA02F22A43CEF823
:1012800000204A6812F0805F7AD0424A956945F0A2
:1012900001059561926902F001020192019AA70885
:1012A000BD1C3D4A52F825E004F0030292000F25D0
:1012B00095402EEA050E394DA84215D005F58065FA
:1012C000A84213D005F58065A84211D005F58065C8
:1012D000A8420FD005F58065A8420DD005F58065C0
:1012E000A8420BD105250AE0002508E0012506E00B
:1012F000022504E0032502E0042500E0062505FAA6
:1013000002F24EEA02020237234D45F827204A68CE
:1013100012F4803F05D005F580652A681A432A60DB
:1013200004E01F4D2A6822EA03022A604A6812F488
:10133000003F04D01A4D6A681A436A6004E0184DF1
:101340006A6822EA03026A604A6812F4801F04D0C5
:10135000134DAA681A43AA6004E0114DAA6822EA54
:101360000302AA604A6812F4001F04D00C4DEA6818
:101370001343EB6004E00A4DEA6822EA0303EB60E2
:1013800001340F2C7FF61DAF03B0F0BD000021101B
:101390000000311000100240000001400008014030
:1013A000000401400AB101617047090401617047FE
:1013B000074AD36823F4E0631B041B0C000200F40B
:1013C000E060184340F0BF6040F40030D0607047E8
:1013D00000ED00E030B4164BDB68C3F30223C3F129
:1013E0000704042C28BF04241D1D062D01D9DD1E71
:1013F00000E00025012303FA04F4013C2140A94048
:10140000AB40013B1A400A43002806DA00F00F0007
:101410001201D2B2074B1A5407E01201D2B200F106
:10142000604000F5614080F8002330BC704700BF89
:1014300000ED00E014ED00E0420900F01F00012380
:1014400003FA00F0014B43F82200704700E100E08E
:101450000138B0F1807F0AD2064B5860F021064A6D
:1014600082F823100020986007221A60704701203C
:10147000704700BF10E000E000ED00E0042805D157
:10148000054A136843F0040313607047024A136867
:1014900023F004031360704710E000E00F4B1A685C
:1014A00042F001021A6059680D4A0A405A601A68EF
:1014B00022F0847222F480321A601A6822F48022A8
:1014C0001A605A6822F4FE025A604FF41F029A60B2
:1014D0004FF00062034B9A60704700BF001002405B
:1014E0000000FFF800ED00E0124A12F0070F07D0ED
:1014F000D11D21F00701C1F5406313440A4601E004
:101500004FF440630C480260002141601344083BE3
:1015100023F007030948036059601960991A516064
:101520001360074B1960074B19604FF00042064BE0
:101530001A60704738000020300000202C00002086
:101540003C0C002028000020380C0020124B00E04A
:1015500013461A688242FBD310B45C68191988429A
:1015600003D14168214459601846446801198A42F0
:101570000CD10A4909688A4206D052682244426066
:101580001A681268026002E0016000E0026098429E
:1015900000D0186010BC7047300000202C000020E4
:1015A00070B5044600F004FC394B1B680BB9FFF71B
:1015B0009BFF384B1B681C4253D194B1083414F084
:1015C000070F0ED024F00704083404F0070343B1DA
:1015D0004FF0500383F31188BFF36F8FBFF34F8F2A
:1015E000FEE7002C3FD02C4B1B689C423DD82B4B78
:1015F0001D6801E02B4615466A68944202D92A68A4
:10160000002AF7D1224A1268954230D01E68083667
:101610002A681A606B681B1B102B10D9281910F050
:10162000070F08D04FF0500383F31188BFF36F8F7B
:10163000BFF34F8FFEE743606C60FFF787FF6A6878
:1016400015490B689B1A0B60154909688B4201D23A
:1016500013490B600F4B1B681A436A6000232B6011
:1016600006E0002604E0002602E0002600E0002656
:1016700000F038FC16F0070F08D04FF0500383F34A
:101680001188BFF36F8FBFF34F8FFEE7304670BDF9
:101690002C000020380C0020280000203000002002
:1016A0003C0C0020A0B338B50346A0F1080550F863
:1016B000042C1849096812EA010408D14FF05003BC
:1016C00083F31188BFF36F8FBFF34F8FFEE750F89E
:1016D000080C40B14FF0500383F31188BFF36F8FB4
:1016E000BFF34F8FFEE794B188B91C4622EA01028E
:1016F00043F8042C00F05CFB54F8043C064A1168E3
:101700000B4413602846FFF721FF00F0EBFB38BDC8
:10171000704700BF380C0020280000200B4B1B68CE
:10172000B3F1FF3F08D04FF0500383F31188BFF3AC
:101730006F8FBFF34F8FFEE74FF0500383F3118895
:10174000BFF36F8FBFF34F8FFEE700BF080000208D
:1017500006480068006880F3088862B661B6BFF387
:101760004F8FBFF36F8F00DF00BF000008ED00E078
:101770004FF0807340F8043C21F0010140F8081C50
:10178000034B40F80C3C40F8202C4038704700BF19
:101790001D1700080000000000000000000000000D
:1017A000074B19680868B0E8F00F80F30988BFF3A9
:1017B0006F8F4FF0000080F311884EF00D0E7047D0
:1017C000080D00204FF0500383F31188BFF36F8F93
:1017D000BFF34F8F0A4A136801331360012B0DD1F9
:1017E000084B1B6813F0FF0F08D04FF0500383F332
:1017F0001188BFF36F8FBFF34F8FFEE7704700BFB5
:101800000800002004ED00E0094B1B6843B94FF0CD
:10181000500383F31188BFF36F8FBFF34F8FFEE741
:10182000013B034A13600BB983F31188704700BF73
:101830000800002000000000000000000000000080
:10184000EFF30980BFF36F8F0D4B1A6820E9F00F9B
:1018500010602DE908404FF0500080F3118800F02F
:1018600023FC4FF0000080F31188BDE808401968A0
:101870000868B0E8F00F80F30988BFF36F8F7047F6
:10188000080D002008B54FF0500383F31188BFF313
:101890006F8FBFF34F8F00F093FA18B14FF0805263
:1018A000024B1A60002383F3118808BD04ED00E0A9
:1018B000064B1B68064AA2FB03239B09013B054A12
:1018C00013600722044B1A60704700BF0400002019
:1018D000D34D621014E000E010E000E000B583B0EA
:1018E0001F4B1A78D2B20192FF221A701B78DBB21A
:1018F0008DF803309DF8033003F05003194A13703C
:101900000722194B1A6009E0174A1368013B13605C
:101910009DF803305B00DBB28DF803309DF8033097
:1019200013F0800FF0D1104A13681B0203F4E06338
:101930001360019BDBB20A4A13700C4B1A6842F425
:1019400070021A601A6842F070421A60FFF7B0FF26
:101950000022074B1A60FFF7FBFEFFF7DFFE00BF18
:1019600000E400E0400C0020440C002020ED00E0EA
:1019700008000020EFF305830F2B0FD9104A9B5C62
:10198000DBB2104A1278934208D24FF0500383F32F
:101990001188BFF36F8FBFF34F8FFEE70A4B1B68B1
:1019A00003F4E063094A1268934208D94FF05003E8
:1019B00083F31188BFF36F8FBFF34F8FFEE770473C
:1019C000F0E300E0400C00200CED00E0440C0020AF
:1019D00000F1080343604FF0FF328260C36003618F
:1019E00000230360704700BF00230361704700BFFE
:1019F00043684B609A688A609A6851609960086190
:101A0000036801330360704730B40D68B5F1FF3FE0
:101A100001D1026907E000F1080200E01A465368AC
:101A20001C68A542FAD253684B6099608A60516085
:101A3000086103680133036030BC70470369426882
:101A4000816891608268416851605A68904201D112
:101A500082685A6000220261186801381860704775
:101A60000A4B1B681B680BB9012300E0002323B15C
:101A70004FF0FF32064B1A607047044B1B68DB685F
:101A8000DB685A68024B1A60704700BF4C0C00209C
:101A9000280D002010B50446006BFFF703FE20461A
:101AA000FFF700FE10BD00BF2DE9F04780469946C4
:101AB000089D099F0A9C236B02F18042013A03EBC7
:101AC000820626F00706002306E0C85CE21882F8CA
:101AD0003400CA5C12B101330F2BF6D9002384F80D
:101AE0004330062D00D90625E56265644FF0000AF3
:101AF000C4F848A0201DFFF777FF04F11800FFF796
:101B000073FF2461C5F10705A5616462C4F84CA0A8
:101B100084F850A04A4641463046FFF729FE20602F
:101B200007B13C60BDE8F08738B5002407E004EB5E
:101B3000840293000E481844FFF74AFF0134062C34
:101B4000F5D90C4D2846FFF743FF0B4C2046FFF715
:101B50003FFF0A48FFF73CFF0948FFF739FF0948F4
:101B6000FFF736FF084B1D60084B1C6038BD00BFF7
:101B7000700C0020300D0020440D00200C0D0020C2
:101B8000540C0020580D00204C0C0020680C002044
:101B900010B50446FFF716FE204A136801331360A0
:101BA0001F4B1B683BB91E4B1C601368012B0DD1EA
:101BB000FFF7BAFF0AE01B4B1B683BB9184B1B68C9
:101BC000DA6AE36A9A4201D8154B1C60164A136818
:101BD00001331360E36A012202FA03F11348026839
:101BE0000A43026003EB83039A00211D104810444E
:101BF000FFF7FEFEFFF708FE0A4B1B686BB1084BB0
:101C00001B68DA6AE36A9A4207D24FF08052094BA6
:101C10001A60BFF34F8FBFF36F8F10BD040D00200C
:101C2000080D0020500C00202C0D00206C0D002011
:101C3000700C002004ED00E070B504460E461D4B0C
:101C40001D681D4B18680430FFF7F8FE50B91A4B99
:101C50001B68DA6A012303FA02F218490B6823EAC7
:101C600002030B60B4F1FF3F07D136B1124B196884
:101C700004311348FFF7BCFE70BD2C440E4B1B68AB
:101C80005C60A54207D90F4B18680B4B19680431EB
:101C9000FFF7BAFE70BD0C4B1868074B196804318A
:101CA000FFF7B2FE094B1B689C4201D2074B1C6038
:101CB00070BD00BF240D0020080D00206C0D002019
:101CC000580D0020680C00204C0C0020280D00202E
:101CD0002DE9F04385B006460F461546984690001C
:101CE000FFF75EFC60B181465420FFF759FC0446C3
:101CF00010B1C0F8309004E04846FFF7D3FC00E094
:101D000000248CB10023039302940D9B01930C9B40
:101D1000009343462A4639463046FFF7C5FE204623
:101D2000FFF736FF012001E04FF0FF3005B0BDE8BE
:101D3000F08300BF00B583B0174B019300230093DD
:101D4000802216491648FFF7C3FF012814D14FF02F
:101D5000500383F31188BFF36F8FBFF34F8F4FF0A2
:101D6000FF32104B1A6001220F4B1A6000220F4BFA
:101D70001A60FFF7B3FD0BE0B0F1FF3F08D14FF061
:101D8000500383F31188BFF36F8FBFF34F8FFEE7CC
:101D900003B05DF804FB00BF200D0020642E000896
:101DA00081200008280D0020500C0020240D002068
:101DB000024A136801331360704700BFFC0C002017
:101DC000F8B53D4B1B68002B69D13C4B1D680135B4
:101DD0001D60C5B93A4B1B681B6843B14FF05003F7
:101DE00083F31188BFF36F8FBFF34F8FFEE7344A41
:101DF0001168344B186810601960334A1368013356
:101E00001360FFF72DFE314B1B689D4203D2002467
:101E10003AE0012400E00024294B1B681B680BB941
:101E2000012300E0002323B14FF0FF32274B1A605B
:101E30002AE0234B1B68DB68DE6873689D4202D290
:101E4000224A136020E0371D3846FFF7F7FDB36ADA
:101E50001BB106F11800FFF7F1FDF36A012202FA47
:101E600003F11B4802680A43026003EB83039A00F4
:101E7000394618481044FFF7BBFDF26A164B1B6841
:101E8000DB6A9A42C5D2C7E7134B1B68DB6A03EBD8
:101E900083039A000F4B9B58012B06D806E00F4A8C
:101EA000136801331360002400E001240C4B1B680D
:101EB00003B101242046F8BDFC0C0020240D0020B5
:101EC0004C0C0020680C0020480C0020280D00203D
:101ED0006C0D0020700C0020080D00206C0C002000
:101EE000700D002038B5344B1B6843B94FF05003D8
:101EF00083F31188BFF36F8FBFF34F8FFEE7FFF7B8
:101F000061FC2D4B1A68013A1A601B68002B4CD1FA
:101F10002A4B1B6833BB00244AE0294BDB68DC6892
:101F200004F11800FFF78AFD251D2846FFF786FDFE
:101F3000E36A012202FA03F1224802680A430260BE
:101F400003EB83039A0029461F481044FFF750FD16
:101F5000E26A1E4B1B68DB6A9A4204D301221C4BC7
:101F60001A6000E00024164B1B68002BD5D10CB181
:101F7000FFF776FD174B1C6854B1FFF721FF10B136
:101F80000122134B1A60013CF7D10022114B1A6059
:101F90000F4B1B685BB14FF080520F4B1A60BFF3C1
:101FA0004F8FBFF36F8F012402E0002400E0002474
:101FB000FFF72AFC204638BDFC0C0020040D002051
:101FC0000C0D00206C0D0020700C0020080D00206E
:101FD000700D00206C0C002004ED00E010B5A8B1DD
:101FE0000446104B1B6843B14FF0500383F3118834
:101FF000BFF36F8FBFF34F8FFEE7FFF7D9FE0021CE
:102000002046FFF719FEFFF76DFF00E0002038B90A
:102010004FF08052044B1A60BFF34F8FBFF36F8FA6
:1020200010BD00BFFC0C002004ED00E010B51BE06B
:10203000FFF7BEFE0F4B1C68FFF754FFA4B1FFF77C
:10204000C1FB0C4BDB68DC68201DFFF7F7FC0A4A7C
:102050001368013B1360094A1368013B1360FFF7E3
:10206000D3FB2046FFF716FD044B1B68002BDFD186
:1020700010BD00BF540C0020040D0020000D0020F6
:1020800008B5FFF7D3FF064B1B68012BF9D94FF0BA
:102090008052044B1A60BFF34F8FBFF36F8FF0E78E
:1020A000700C002004ED00E01F4B1B681BB10122E7
:1020B0001E4B1A60704700221C4B1A601C4B1B6899
:1020C000B3FA83F3DBB2C3F11F0303EB83018A008E
:1020D00018498A5842B94FF0500383F31188BFF36F
:1020E0006F8FBFF34F8FFEE730B4124D9900CA18BF
:1020F0009000284442685468446019448A000832B9
:102100002A44944205D1606803EB83018A002A4483
:10211000506003EB83039A00064B1A445368DA6855
:10212000054B1A6030BC7047FC0C0020700D00207D
:102130006C0D0020700C0020080D002040B94FF0FD
:10214000500383F31188BFF36F8FBFF34F8FFEE708
:1021500010B50C46044B19681831FFF755FC0121E6
:102160002046FFF769FD10BD080D002038B5C36893
:10217000DC6844B94FF0500383F31188BFF36F8FCD
:10218000BFF34F8FFEE704F118052846FFF756FC12
:10219000134B1B68A3B9251D2846FFF74FFCE36AC4
:1021A000012202FA03F10F4802680A43026003EBBE
:1021B00083039A0029460C481044FFF719FC03E0FA
:1021C00029460A48FFF714FCE26A094B1B68DB6AE0
:1021D0009A4203D90120074B186038BD002038BD52
:1021E000FC0C00206C0D0020700C00200C0D002059
:1021F000080D0020700D002040B94FF0500383F30C
:102200001188BFF36F8FBFF34F8FFEE7034A126849
:102210000260034A12684260704700BF480C002009
:10222000240D002038B540B94FF0500383F31188D6
:10223000BFF36F8FBFF34F8FFEE7044641B94FF0F6
:10224000500383F31188BFF36F8FBFF34F8FFEE707
:102250000D46FFF7B7FA114B19682A68B2F1FF3F34
:1022600013D020680E4B1B68984202D063689942D5
:102270000DD26368C81A82420BD95B1A13442B60D3
:102280002046FFF7B9FF002404E0002402E0012407
:1022900000E00124FFF7B8FA204638BD240D0020E5
:1022A000480C00200122014B1A607047700D00207D
:1022B000054B1B6823B1054B1B681BB902207047F7
:1022C0000120704700207047500C0020FC0C0020BB
:1022D00000284AD038B50246C36A24490968C96A49
:1022E0008B4241D28169002905DB20490968C96A0E
:1022F000C1F107018161506903EB830399001C4B15
:102300001944884201D1012300E0002343B314465D
:10231000151D2846FFF792FB70B9E36A03EB8301B2
:102320008A0013498A583AB9012202FA03F3114983
:102330000A6822EA03030B600C4B1B68DB6AE3624A
:10234000012202FA03F10B4802680A43026003EB20
:1023500083039A00294606481044FFF749FB38BD1D
:10236000024B1B68DB6AD36238BD7047080D002042
:10237000700C00206C0D002000284BD038B50346AF
:10238000274A1268904208D04FF0500383F3118817
:10239000BFF36F8FBFF34F8FFEE7826C42B94FF0F0
:1023A000500383F31188BFF36F8FBFF34F8FFEE7A6
:1023B000013A8264C06A596C88422DD072BB1C46B7
:1023C0001D1D2846FFF73AFB70B9E26A02EB820155
:1023D0008B001449CB583BB9012303FA02F212498E
:1023E0000B6823EA02030B60636CE362C3F107022C
:1023F000A261012404FA03F00B490A6802430A604F
:1024000003EB83039A00294606481044FFF7F0FACD
:10241000204638BD00207047002038BD002038BD60
:10242000080D0020700C00206C0D0020054B1B686F
:1024300023B1044B1A68936C01339364014B186801
:10244000704700BF080D002010B50446FFF7BAF929
:10245000A26BE36B9A4201D1012400E00024FFF754
:10246000D3F9204610BD00BF10B50446FFF7AAF906
:10247000A36B0BB9012400E00024FFF7C5F9204647
:1024800010BD00BF70B504461646856B026C3AB9A4
:10249000036843BB4068FFF76FFF0023636029E0D8
:1024A0006EB98068FDF71EFFA268236C1344A36019
:1024B0006268934219D32368A36000201AE0C068C1
:1024C000FDF710FF236C5B42E2681A44E26021686A
:1024D0008A4202D262681344E360022E07D145B1FA
:1024E000013D002006E0002004E0002002E0002082
:1024F00000E000200135A56370BD00BF026C72B121
:1025000010B50346C4681444C4604068844201D3D3
:102510001868D8600846D968FDF7E4FE10BD70471A
:1025200038B50546FFF74EF995F8454064B20AE024
:102530006B6A53B105F12400FFF718FE08B1FFF7ED
:10254000B1FE013C64B2002CF2DCFF2385F845307B
:10255000FFF75AF9FFF736F995F8444064B20AE0FC
:102560002B6953B105F11000FFF700FE08B1FFF72A
:1025700099FE013C64B2002CF2DCFF2385F8443064
:10258000FFF742F938BD00BF38B540B94FF05003EE
:1025900083F31188BFF36F8FBFF34F8FFEE70446BD
:1025A0000D46FFF70FF92168E26B236C03FB021065
:1025B00060600020A063A160013A02FB0313E360A6
:1025C000FF2384F8443084F845307DB92369ABB1EA
:1025D00004F11000FFF7CAFD80B14FF08052094BA3
:1025E0001A60BFF34F8FBFF36F8F07E004F1100045
:1025F000FFF7EEF904F12400FFF7EAF9FFF704F919
:10260000012038BD04ED00E010B5029B0C4609B96D
:102610001B6000E01A60D8631C6401211846FFF7B4
:10262000B3FF10BD40B94FF0500383F31188BFF3DF
:102630006F8FBFF34F8FFEE7F0B583B0034611B144
:1026400001FB00F000E000201D4617460C46483014
:10265000FEF7A6FF064638B100903B4600F148025F
:1026600021462846FFF7D0FF304603B0F0BD00BF3B
:10267000F0B585B0019240B94FF0500383F3118853
:10268000BFF36F8FBFF34F8FFEE7044619B9026C9B
:102690001AB9012202E0012200E0002242B94FF003
:1026A000500383F31188BFF36F8FBFF34F8FFEE7A3
:1026B000022B03D1E26B012A02D102E0012200E0E9
:1026C000002242B94FF0500383F31188BFF36F8F9C
:1026D000BFF34F8FFEE71D460E46FFF7E9FD18B921
:1026E000019B1BB9012302E0012300E0002343B951
:1026F0004FF0500383F31188BFF36F8FBFF34F8FF9
:10270000FEE70027FFF75EF8A26BE36B9A4201D366
:10271000022D21D12A4631462046FFF7B3FE636AD7
:102720006BB104F12400FFF721FD88B14FF0805216
:10273000324B1A60BFF34F8FBFF36F8F08E038B191
:102740004FF080522D4B1A60BFF34F8FBFF36F8F46
:10275000FFF75AF801204EE0019B1BB9FFF754F830
:10276000002048E01FB902A8FFF746FD0127FFF748
:102770004BF8FFF71DFBFFF725F894F844305BB2E8
:10278000B3F1FF3F02D1002384F8443094F8453080
:102790005BB2B3F1FF3F02D1002384F84530FFF76D
:1027A00033F801A902A8FFF73DFDF0B92046FFF775
:1027B0004BFEA0B1019904F11000FFF7BFFC2046C9
:1027C000FFF7AEFEFFF78EFB00289BD14FF0805243
:1027D0000A4B1A60BFF34F8FBFF36F8F92E720460B
:1027E000FFF79EFEFFF77EFB8CE72046FFF798FE83
:1027F000FFF778FB002005B0F0BD00BF04ED00E05E
:102800002DE9F84340B94FF0500383F31188BFF32B
:102810006F8FBFF34F8FFEE7044619B9006C18B9EC
:10282000012002E0012000E0002040B94FF05003F9
:1028300083F31188BFF36F8FBFF34F8FFEE7022B37
:1028400003D1E06B012802D102E0012000E000206A
:1028500040B94FF0500383F31188BFF36F8FBFF37C
:102860004F8FFEE71F4690468946FFF783F8EFF348
:1028700011864FF0500383F31188BFF36F8FBFF3BE
:102880004F8FA26BE36B9A4201D3022F1ED194F8B3
:1028900045506DB23A4649462046FFF7F3FDB5F183
:1028A000FF3F0DD1636A9BB104F12400FFF75EFC8A
:1028B00080B1B8F1000F0FD00120C8F800000CE083
:1028C0006B1C5BB284F84530012006E0002004E078
:1028D000012002E0012000E0012086F31188BDE81C
:1028E000F88300BF2DE9F04184B0019240B94FF068
:1028F000500383F31188BFF36F8FBFF34F8FFEE751
:10290000044619B9026C1AB9012202E0012200E062
:10291000002242B94FF0500383F31188BFF36F8F49
:10292000BFF34F8FFEE71F468846FFF7C1FC18B97B
:10293000019B1BB9012302E0012300E0002343B9FE
:102940004FF0500383F31188BFF36F8FBFF34F8FA6
:10295000FEE70026FEF736FFA56B85B3E668414625
:102960002046FFF7CBFDB7B9013DA563236813B936
:10297000FFF75CFD60602369EBB104F11000FFF725
:10298000F5FBC0B14FF080523D4B1A60BFF34F8F43
:10299000BFF36F8F0FE0E660636A63B104F1240058
:1029A000FFF7E4FB38B14FF08052354B1A60BFF3AC
:1029B0004F8FBFF36F8FFEF727FF01205DE0019B74
:1029C0001BB9FEF721FF002057E01EB902A8FFF750
:1029D00013FC0126FEF718FFFFF7EAF9FEF7F2FEF7
:1029E00094F844305BB2B3F1FF3F02D1002384F886
:1029F000443094F845305BB2B3F1FF3F02D100237D
:102A000084F84530FEF700FF01A902A8FFF70AFC91
:102A100038BB2046FFF728FDE8B1236833B9FEF73D
:102A2000D1FE6068FFF754FCFEF7EEFE019904F159
:102A30002400FFF783FB2046FFF772FDFFF752FAF1
:102A4000002887D14FF080520D4B1A60BFF34F8F93
:102A5000BFF36F8F7EE72046FFF762FDFFF742FA74
:102A600078E72046FFF75CFDFFF73CFA2046FFF7CA
:102A7000FBFC00283FF46EAF002004B0BDE8F081FD
:102A800004ED00E02DE9F84340B94FF0500383F323
:102A90001188BFF36F8FBFF34F8FFEE7044619B95C
:102AA000036C1BB9012302E0012300E0002343B9BA
:102AB0004FF0500383F31188BFF36F8FBFF34F8F35
:102AC000FEE717468946FEF755FFEFF311864FF0F4
:102AD000500383F31188BFF36F8FBFF34F8FD4F888
:102AE0003880B8F1000F1DD094F844506DB24946BB
:102AF0002046FFF703FD08F1FF33A363B5F1FF3F65
:102B00000AD1236983B104F11000FFF72FFB68B1EC
:102B100077B1012038600CE06B1C5BB284F8443064
:102B2000012006E0002004E0012002E0012000E096
:102B3000012086F31188BDE8F88300BF842801D006
:102B40000330704700207047EFF30580003018BF56
:102B50000120704708B5FFF7EDF8002008BD00BF61
:102B6000F0B585B00F46446805680669B0F90800FD
:102B7000FFF7E4FF03AB019300903B46B2B2294656
:102B80002046FFF7A5F8012801D1039800E00020B6
:102B900005B0F0BD08B508B90120FFE7FFF71EFA40
:102BA000002008BD70B5054646681420FEF7F8FC05
:102BB000044650B3033626F003062B688360C660D4
:102BC000002303612868FEF7EBFC6060C8B1286849
:102BD00000FB06F0FEF7E4FC206028B909E062681B
:102BE0000021D154013300E000232A689342F6D338
:102BF0000BE06068FEF756FD2046FEF753FD00240B
:102C000003E02046FEF74EFD0024204670BD00BFC5
:102C100030B585B0044603680193436802930023EE
:102C2000039385680C20FEF7BBFC2860A368186836
:102C3000E0B10460A3681D68002204212068FFF74A
:102C4000F1FC6860A3681D686B6823B92846FEF72D
:102C500029FD00200AE001A8FFF7A4FFA860A368EF
:102C60001868836813B9FEF71DFD002005B030BD5C
:102C700010B584B0019118B3044600230393FFF705
:102C800063FF98B1002303AA01A96068FFF7B8FDAC
:102C9000012817D1039BBBB14FF080520D4B1A6036
:102CA000BFF34F8FBFF36F8F002010E000231A4651
:102CB00001A96068FFF7DCFC012807D0FF2006E0CF
:102CC000802004E0FF2002E0002000E0002004B0AB
:102CD00010BD00BF04ED00E070B584B00446029161
:102CE00041B904AB802243F8102D93E8070084E833
:102CF000070037E00D46164600230393B2F1FF3F6D
:102D000002D00AB102B90126FFF71EFFB0B103AA33
:102D100001A96868FFF7B6FE012802D120230093BD
:102D200001E000230093039BC3B14FF080520F4B8F
:102D30001A60BFF34F8FBFF36F8F0FE0002332464F
:102D400001A96868FFF7CEFD012802D12023009376
:102D500004E00EB9002300E0402300939DE8070043
:102D600084E80700204604B070BD00BF04ED00E019
:102D700008B5FFF79DFA012801D0FEF783FD08BDD5
:102D8000002103E00B4B5B58435004310A480B4BC6
:102D900042189A42F6D30A4A02E0002342F8043B62
:102DA000084B9A42F9D3FEF779FBFDF773FAFDF76A
:102DB0007DFC7047742E0008000000200C000020ED
:102DC0000C000020C40D0020FEE70000F8B500BF95
:102DD000F8BC08BC9E467047F8B500BFF8BC08BCFC
:042DE0009E46704754
:102DE4003C2E000859040008000000000000000008
:102DF400800000002C2E0008B10400080000000030
:102E04000000000080000000020304050607080912
:102E14000A0B0C0D0E0F1010010200005372632FE9
:102E24006D61696E2E6300004D61696C436F6E7352
:102E3400756D6572000000004D61696C50726F64BD
:102E440075636572000000000000000000000000CF
:102E5400010203040607080900000000010203043C
:082E640049444C450000000048
:042E6C005D020008FB
:042E7000350200081F
:0C2E74000100000000A24A04AAAAAAAAB9
:0400000508002D8141
:00000001FF
